{
  "_format": "hh-sol-artifact-1",
  "contractName": "VotingSystem",
  "sourceName": "contracts/vote.sol",
  "abi": [
    {
      "inputs": [],
      "stateMutability": "nonpayable",
      "type": "constructor"
    },
    {
      "anonymous": false,
      "inputs": [
        {
          "indexed": false,
          "internalType": "uint256",
          "name": "id",
          "type": "uint256"
        },
        {
          "indexed": false,
          "internalType": "string",
          "name": "title",
          "type": "string"
        },
        {
          "indexed": false,
          "internalType": "bool",
          "name": "active",
          "type": "bool"
        }
      ],
      "name": "VoteCreated",
      "type": "event"
    },
    {
      "inputs": [],
      "name": "CONTEST_FEE",
      "outputs": [
        {
          "internalType": "uint256",
          "name": "",
          "type": "uint256"
        }
      ],
      "stateMutability": "view",
      "type": "function"
    },
    {
      "inputs": [],
      "name": "CREATE_VOTE_FEE",
      "outputs": [
        {
          "internalType": "uint256",
          "name": "",
          "type": "uint256"
        }
      ],
      "stateMutability": "view",
      "type": "function"
    },
    {
      "inputs": [],
      "name": "VOTE_FEE",
      "outputs": [
        {
          "internalType": "uint256",
          "name": "",
          "type": "uint256"
        }
      ],
      "stateMutability": "view",
      "type": "function"
    },
    {
      "inputs": [
        {
          "internalType": "address",
          "name": "_user",
          "type": "address"
        },
        {
          "internalType": "enum VotingSystem.Role",
          "name": "_role",
          "type": "uint8"
        }
      ],
      "name": "assignRole",
      "outputs": [],
      "stateMutability": "nonpayable",
      "type": "function"
    },
    {
      "inputs": [
        {
          "internalType": "uint256",
          "name": "_voteId",
          "type": "uint256"
        },
        {
          "internalType": "string",
          "name": "_name",
          "type": "string"
        }
      ],
      "name": "contest",
      "outputs": [],
      "stateMutability": "payable",
      "type": "function"
    },
    {
      "inputs": [
        {
          "internalType": "string",
          "name": "_title",
          "type": "string"
        }
      ],
      "name": "createVote",
      "outputs": [],
      "stateMutability": "payable",
      "type": "function"
    },
    {
      "inputs": [
        {
          "internalType": "uint256",
          "name": "_voteId",
          "type": "uint256"
        }
      ],
      "name": "endVote",
      "outputs": [],
      "stateMutability": "nonpayable",
      "type": "function"
    },
    {
      "inputs": [
        {
          "internalType": "uint256",
          "name": "_voteId",
          "type": "uint256"
        }
      ],
      "name": "getCandidates",
      "outputs": [
        {
          "components": [
            {
              "internalType": "address",
              "name": "candidateAddress",
              "type": "address"
            },
            {
              "internalType": "string",
              "name": "name",
              "type": "string"
            },
            {
              "internalType": "uint256",
              "name": "voteCount",
              "type": "uint256"
            }
          ],
          "internalType": "struct VotingSystem.Candidate[]",
          "name": "",
          "type": "tuple[]"
        }
      ],
      "stateMutability": "view",
      "type": "function"
    },
    {
      "inputs": [],
      "name": "owner",
      "outputs": [
        {
          "internalType": "address",
          "name": "",
          "type": "address"
        }
      ],
      "stateMutability": "view",
      "type": "function"
    },
    {
      "inputs": [
        {
          "internalType": "address",
          "name": "",
          "type": "address"
        }
      ],
      "name": "roles",
      "outputs": [
        {
          "internalType": "enum VotingSystem.Role",
          "name": "",
          "type": "uint8"
        }
      ],
      "stateMutability": "view",
      "type": "function"
    },
    {
      "inputs": [
        {
          "internalType": "uint256",
          "name": "_voteId",
          "type": "uint256"
        },
        {
          "internalType": "uint256",
          "name": "_candidateIndex",
          "type": "uint256"
        }
      ],
      "name": "vote",
      "outputs": [],
      "stateMutability": "payable",
      "type": "function"
    },
    {
      "inputs": [],
      "name": "voteCounter",
      "outputs": [
        {
          "internalType": "uint256",
          "name": "",
          "type": "uint256"
        }
      ],
      "stateMutability": "view",
      "type": "function"
    },
    {
      "inputs": [
        {
          "internalType": "uint256",
          "name": "",
          "type": "uint256"
        }
      ],
      "name": "votes",
      "outputs": [
        {
          "internalType": "uint256",
          "name": "id",
          "type": "uint256"
        },
        {
          "internalType": "string",
          "name": "title",
          "type": "string"
        },
        {
          "internalType": "bool",
          "name": "active",
          "type": "bool"
        }
      ],
      "stateMutability": "view",
      "type": "function"
    },
    {
      "inputs": [],
      "name": "withdraw",
      "outputs": [],
      "stateMutability": "nonpayable",
      "type": "function"
    }
  ],
  "bytecode": "0x6080604052348015600f57600080fd5b5033600360006101000a81548173ffffffffffffffffffffffffffffffffffffffff021916908373ffffffffffffffffffffffffffffffffffffffff16021790555060016000803373ffffffffffffffffffffffffffffffffffffffff1673ffffffffffffffffffffffffffffffffffffffff16815260200190815260200160002060006101000a81548160ff0219169083600381111560b05760af60b9565b5b021790555060e8565b7f4e487b7100000000000000000000000000000000000000000000000000000000600052602160045260246000fd5b612020806100f76000396000f3fe6080604052600436106100dd5760003560e01c80637ef4aa7b1161007f5780639937464211610059578063993746421461028f5780639976ef9b146102cc5780639abce7d9146102e8578063b384abef14610313576100dd565b80637ef4aa7b14610210578063865df0ad1461023b5780638da5cb5b14610264576100dd565b8063599f36d1116100bb578063599f36d1146101525780635df813301461017d578063630a195b146101bc57806368299ae7146101e5576100dd565b806313292a02146100e25780633ccfd60b146100fe5780633e39a7a514610115575b600080fd5b6100fc60048036038101906100f79190611091565b61032f565b005b34801561010a57600080fd5b506101136104dd565b005b34801561012157600080fd5b5061013c60048036038101906101379190611114565b6105d8565b6040516101499190611333565b60405180910390f35b34801561015e57600080fd5b5061016761073f565b6040516101749190611364565b60405180910390f35b34801561018957600080fd5b506101a4600480360381019061019f9190611114565b610745565b6040516101b3939291906113e4565b60405180910390f35b3480156101c857600080fd5b506101e360048036038101906101de9190611473565b610804565b005b3480156101f157600080fd5b506101fa610987565b6040516102079190611364565b60405180910390f35b34801561021c57600080fd5b50610225610993565b6040516102329190611364565b60405180910390f35b34801561024757600080fd5b50610262600480360381019061025d9190611114565b61099f565b005b34801561027057600080fd5b50610279610a83565b60405161028691906114c2565b60405180910390f35b34801561029b57600080fd5b506102b660048036038101906102b191906114dd565b610aa9565b6040516102c39190611581565b60405180910390f35b6102e660048036038101906102e1919061159c565b610ac9565b005b3480156102f457600080fd5b506102fd610d3f565b60405161030a9190611364565b60405180910390f35b61032d600480360381019061032891906115fc565b610d4b565b005b600160038111156103435761034261150a565b5b6000803373ffffffffffffffffffffffffffffffffffffffff1673ffffffffffffffffffffffffffffffffffffffff16815260200190815260200160002060009054906101000a900460ff1660038111156103a1576103a061150a565b5b146103e1576040517f08c379a00000000000000000000000000000000000000000000000000000000081526004016103d890611688565b60405180910390fd5b6706f05b59d3b20000341461042b576040517f08c379a0000000000000000000000000000000000000000000000000000000008152600401610422906116f4565b60405180910390fd5b6002600081548092919061043e90611743565b9190505550600060016000600254815260200190815260200160002090506002548160000181905550828282600101918261047a9291906119d1565b5060018160020160006101000a81548160ff0219169083151502179055507fd03f21d0f8d06cb17ab64386f82690af4246d078bc2e3c99383faba674b4022f600254848460016040516104d09493929190611add565b60405180910390a1505050565b600360009054906101000a900473ffffffffffffffffffffffffffffffffffffffff1673ffffffffffffffffffffffffffffffffffffffff163373ffffffffffffffffffffffffffffffffffffffff161461056d576040517f08c379a000000000000000000000000000000000000000000000000000000000815260040161056490611b69565b60405180910390fd5b600360009054906101000a900473ffffffffffffffffffffffffffffffffffffffff1673ffffffffffffffffffffffffffffffffffffffff166108fc479081150290604051600060405180830381858888f193505050501580156105d5573d6000803e3d6000fd5b50565b606060016000838152602001908152602001600020600401805480602002602001604051908101604052809291908181526020016000905b8282101561073457838290600052602060002090600302016040518060600160405290816000820160009054906101000a900473ffffffffffffffffffffffffffffffffffffffff1673ffffffffffffffffffffffffffffffffffffffff1673ffffffffffffffffffffffffffffffffffffffff168152602001600182018054610699906117f4565b80601f01602080910402602001604051908101604052809291908181526020018280546106c5906117f4565b80156107125780601f106106e757610100808354040283529160200191610712565b820191906000526020600020905b8154815290600101906020018083116106f557829003601f168201915b5050505050815260200160028201548152505081526020019060010190610610565b505050509050919050565b60025481565b600160205280600052604060002060009150905080600001549080600101805461076e906117f4565b80601f016020809104026020016040519081016040528092919081815260200182805461079a906117f4565b80156107e75780601f106107bc576101008083540402835291602001916107e7565b820191906000526020600020905b8154815290600101906020018083116107ca57829003601f168201915b5050505050908060020160009054906101000a900460ff16905083565b600160038111156108185761081761150a565b5b6000803373ffffffffffffffffffffffffffffffffffffffff1673ffffffffffffffffffffffffffffffffffffffff16815260200190815260200160002060009054906101000a900460ff1660038111156108765761087561150a565b5b146108b6576040517f08c379a00000000000000000000000000000000000000000000000000000000081526004016108ad90611688565b60405180910390fd5b600060038111156108ca576108c961150a565b5b8160038111156108dd576108dc61150a565b5b0361091d576040517f08c379a000000000000000000000000000000000000000000000000000000000815260040161091490611bd5565b60405180910390fd5b806000808473ffffffffffffffffffffffffffffffffffffffff1673ffffffffffffffffffffffffffffffffffffffff16815260200190815260200160002060006101000a81548160ff0219169083600381111561097e5761097d61150a565b5b02179055505050565b6706f05b59d3b2000081565b6703782dace9d9000081565b600160038111156109b3576109b261150a565b5b6000803373ffffffffffffffffffffffffffffffffffffffff1673ffffffffffffffffffffffffffffffffffffffff16815260200190815260200160002060009054906101000a900460ff166003811115610a1157610a1061150a565b5b14610a51576040517f08c379a0000000000000000000000000000000000000000000000000000000008152600401610a4890611688565b60405180910390fd5b60006001600083815260200190815260200160002060020160006101000a81548160ff02191690831515021790555050565b600360009054906101000a900473ffffffffffffffffffffffffffffffffffffffff1681565b60006020528060005260406000206000915054906101000a900460ff1681565b60026003811115610add57610adc61150a565b5b6000803373ffffffffffffffffffffffffffffffffffffffff1673ffffffffffffffffffffffffffffffffffffffff16815260200190815260200160002060009054906101000a900460ff166003811115610b3b57610b3a61150a565b5b14610b7b576040517f08c379a0000000000000000000000000000000000000000000000000000000008152600401610b7290611c41565b60405180910390fd5b6704db7325476300003414610bc5576040517f08c379a0000000000000000000000000000000000000000000000000000000008152600401610bbc90611cad565b60405180910390fd5b60006001600085815260200190815260200160002090508060020160009054906101000a900460ff16610c2d576040517f08c379a0000000000000000000000000000000000000000000000000000000008152600401610c2490611d19565b60405180910390fd5b8060040160405180606001604052803373ffffffffffffffffffffffffffffffffffffffff16815260200185858080601f016020809104026020016040519081016040528093929190818152602001838380828437600081840152601f19601f8201169050808301925050505050505081526020016000815250908060018154018082558091505060019003906000526020600020906003020160009091909190915060008201518160000160006101000a81548173ffffffffffffffffffffffffffffffffffffffff021916908373ffffffffffffffffffffffffffffffffffffffff1602179055506020820151816001019081610d2c9190611d39565b5060408201518160020155505050505050565b6704db73254763000081565b600380811115610d5e57610d5d61150a565b5b6000803373ffffffffffffffffffffffffffffffffffffffff1673ffffffffffffffffffffffffffffffffffffffff16815260200190815260200160002060009054906101000a900460ff166003811115610dbc57610dbb61150a565b5b14610dfc576040517f08c379a0000000000000000000000000000000000000000000000000000000008152600401610df390611e57565b60405180910390fd5b6703782dace9d900003414610e46576040517f08c379a0000000000000000000000000000000000000000000000000000000008152600401610e3d90611ec3565b60405180910390fd5b60006001600084815260200190815260200160002090508060020160009054906101000a900460ff16610eae576040517f08c379a0000000000000000000000000000000000000000000000000000000008152600401610ea590611d19565b60405180910390fd5b8060030160003373ffffffffffffffffffffffffffffffffffffffff1673ffffffffffffffffffffffffffffffffffffffff16815260200190815260200160002060009054906101000a900460ff1615610f3d576040517f08c379a0000000000000000000000000000000000000000000000000000000008152600401610f3490611f2f565b60405180910390fd5b80600401805490508210610f86576040517f08c379a0000000000000000000000000000000000000000000000000000000008152600401610f7d90611f9b565b60405180910390fd5b60018160030160003373ffffffffffffffffffffffffffffffffffffffff1673ffffffffffffffffffffffffffffffffffffffff16815260200190815260200160002060006101000a81548160ff021916908315150217905550806004018281548110610ff657610ff5611fbb565b5b9060005260206000209060030201600201600081548092919061101890611743565b9190505550505050565b600080fd5b600080fd5b600080fd5b600080fd5b600080fd5b60008083601f8401126110515761105061102c565b5b8235905067ffffffffffffffff81111561106e5761106d611031565b5b60208301915083600182028301111561108a57611089611036565b5b9250929050565b600080602083850312156110a8576110a7611022565b5b600083013567ffffffffffffffff8111156110c6576110c5611027565b5b6110d28582860161103b565b92509250509250929050565b6000819050919050565b6110f1816110de565b81146110fc57600080fd5b50565b60008135905061110e816110e8565b92915050565b60006020828403121561112a57611129611022565b5b6000611138848285016110ff565b91505092915050565b600081519050919050565b600082825260208201905092915050565b6000819050602082019050919050565b600073ffffffffffffffffffffffffffffffffffffffff82169050919050565b60006111988261116d565b9050919050565b6111a88161118d565b82525050565b600081519050919050565b600082825260208201905092915050565b60005b838110156111e85780820151818401526020810190506111cd565b60008484015250505050565b6000601f19601f8301169050919050565b6000611210826111ae565b61121a81856111b9565b935061122a8185602086016111ca565b611233816111f4565b840191505092915050565b611247816110de565b82525050565b6000606083016000830151611265600086018261119f565b506020830151848203602086015261127d8282611205565b9150506040830151611292604086018261123e565b508091505092915050565b60006112a9838361124d565b905092915050565b6000602082019050919050565b60006112c982611141565b6112d3818561114c565b9350836020820285016112e58561115d565b8060005b858110156113215784840389528151611302858261129d565b945061130d836112b1565b925060208a019950506001810190506112e9565b50829750879550505050505092915050565b6000602082019050818103600083015261134d81846112be565b905092915050565b61135e816110de565b82525050565b60006020820190506113796000830184611355565b92915050565b600082825260208201905092915050565b600061139b826111ae565b6113a5818561137f565b93506113b58185602086016111ca565b6113be816111f4565b840191505092915050565b60008115159050919050565b6113de816113c9565b82525050565b60006060820190506113f96000830186611355565b818103602083015261140b8185611390565b905061141a60408301846113d5565b949350505050565b61142b8161118d565b811461143657600080fd5b50565b60008135905061144881611422565b92915050565b6004811061145b57600080fd5b50565b60008135905061146d8161144e565b92915050565b6000806040838503121561148a57611489611022565b5b600061149885828601611439565b92505060206114a98582860161145e565b9150509250929050565b6114bc8161118d565b82525050565b60006020820190506114d760008301846114b3565b92915050565b6000602082840312156114f3576114f2611022565b5b600061150184828501611439565b91505092915050565b7f4e487b7100000000000000000000000000000000000000000000000000000000600052602160045260246000fd5b6004811061154a5761154961150a565b5b50565b600081905061155b82611539565b919050565b600061156b8261154d565b9050919050565b61157b81611560565b82525050565b60006020820190506115966000830184611572565b92915050565b6000806000604084860312156115b5576115b4611022565b5b60006115c3868287016110ff565b935050602084013567ffffffffffffffff8111156115e4576115e3611027565b5b6115f08682870161103b565b92509250509250925092565b6000806040838503121561161357611612611022565b5b6000611621858286016110ff565b9250506020611632858286016110ff565b9150509250929050565b7f4e6f742061646d696e0000000000000000000000000000000000000000000000600082015250565b600061167260098361137f565b915061167d8261163c565b602082019050919050565b600060208201905081810360008301526116a181611665565b9050919050565b7f4d7573742070617920302e352045544800000000000000000000000000000000600082015250565b60006116de60108361137f565b91506116e9826116a8565b602082019050919050565b6000602082019050818103600083015261170d816116d1565b9050919050565b7f4e487b7100000000000000000000000000000000000000000000000000000000600052601160045260246000fd5b600061174e826110de565b91507fffffffffffffffffffffffffffffffffffffffffffffffffffffffffffffffff82036117805761177f611714565b5b600182019050919050565b600082905092915050565b7f4e487b7100000000000000000000000000000000000000000000000000000000600052604160045260246000fd5b7f4e487b7100000000000000000000000000000000000000000000000000000000600052602260045260246000fd5b6000600282049050600182168061180c57607f821691505b60208210810361181f5761181e6117c5565b5b50919050565b60008190508160005260206000209050919050565b60006020601f8301049050919050565b600082821b905092915050565b6000600883026118877fffffffffffffffffffffffffffffffffffffffffffffffffffffffffffffffff8261184a565b611891868361184a565b95508019841693508086168417925050509392505050565b6000819050919050565b60006118ce6118c96118c4846110de565b6118a9565b6110de565b9050919050565b6000819050919050565b6118e8836118b3565b6118fc6118f4826118d5565b848454611857565b825550505050565b600090565b611911611904565b61191c8184846118df565b505050565b5b8181101561194057611935600082611909565b600181019050611922565b5050565b601f8211156119855761195681611825565b61195f8461183a565b8101602085101561196e578190505b61198261197a8561183a565b830182611921565b50505b505050565b600082821c905092915050565b60006119a86000198460080261198a565b1980831691505092915050565b60006119c18383611997565b9150826002028217905092915050565b6119db838361178b565b67ffffffffffffffff8111156119f4576119f3611796565b5b6119fe82546117f4565b611a09828285611944565b6000601f831160018114611a385760008415611a26578287013590505b611a3085826119b5565b865550611a98565b601f198416611a4686611825565b60005b82811015611a6e57848901358255600182019150602085019450602081019050611a49565b86831015611a8b5784890135611a87601f891682611997565b8355505b6001600288020188555050505b50505050505050565b82818337600083830152505050565b6000611abc838561137f565b9350611ac9838584611aa1565b611ad2836111f4565b840190509392505050565b6000606082019050611af26000830187611355565b8181036020830152611b05818587611ab0565b9050611b1460408301846113d5565b95945050505050565b7f4e6f74206f776e65720000000000000000000000000000000000000000000000600082015250565b6000611b5360098361137f565b9150611b5e82611b1d565b602082019050919050565b60006020820190508181036000830152611b8281611b46565b9050919050565b7f496e76616c696420726f6c650000000000000000000000000000000000000000600082015250565b6000611bbf600c8361137f565b9150611bca82611b89565b602082019050919050565b60006020820190508181036000830152611bee81611bb2565b9050919050565b7f4e6f742063616e64696461746500000000000000000000000000000000000000600082015250565b6000611c2b600d8361137f565b9150611c3682611bf5565b602082019050919050565b60006020820190508181036000830152611c5a81611c1e565b9050919050565b7f4d7573742070617920302e333520455448000000000000000000000000000000600082015250565b6000611c9760118361137f565b9150611ca282611c61565b602082019050919050565b60006020820190508181036000830152611cc681611c8a565b9050919050565b7f566f7465206e6f74206163746976650000000000000000000000000000000000600082015250565b6000611d03600f8361137f565b9150611d0e82611ccd565b602082019050919050565b60006020820190508181036000830152611d3281611cf6565b9050919050565b611d42826111ae565b67ffffffffffffffff811115611d5b57611d5a611796565b5b611d6582546117f4565b611d70828285611944565b600060209050601f831160018114611da35760008415611d91578287015190505b611d9b85826119b5565b865550611e03565b601f198416611db186611825565b60005b82811015611dd957848901518255600182019150602085019450602081019050611db4565b86831015611df65784890151611df2601f891682611997565b8355505b6001600288020188555050505b505050505050565b7f4e6f7420766f7465720000000000000000000000000000000000000000000000600082015250565b6000611e4160098361137f565b9150611e4c82611e0b565b602082019050919050565b60006020820190508181036000830152611e7081611e34565b9050919050565b7f4d7573742070617920302e323520455448000000000000000000000000000000600082015250565b6000611ead60118361137f565b9150611eb882611e77565b602082019050919050565b60006020820190508181036000830152611edc81611ea0565b9050919050565b7f416c726561647920766f74656400000000000000000000000000000000000000600082015250565b6000611f19600d8361137f565b9150611f2482611ee3565b602082019050919050565b60006020820190508181036000830152611f4881611f0c565b9050919050565b7f496e76616c69642063616e646964617465000000000000000000000000000000600082015250565b6000611f8560118361137f565b9150611f9082611f4f565b602082019050919050565b60006020820190508181036000830152611fb481611f78565b9050919050565b7f4e487b7100000000000000000000000000000000000000000000000000000000600052603260045260246000fdfea264697066735822122067c7e997dd5644e89ae19436a1722528aa4925c5d551b3e4351f0fce6e8e026964736f6c634300081c0033",
  "linkReferences": {},
  "deployedLinkReferences": {}
}